:020000040800F2
:1000000000000120B9020008BF020008C302000876
:1000100035030008390300088103000800000000D0
:10002000000000000000000000000000C9030008FC
:10003000CD03000800000000D103000855090008A6
:10004000E5030008E5030008E5030008E5030008F0
:10005000E5030008E503000815070008E5030008AC
:10006000E5030008E5030008E5030008E5030008D0
:10007000E5030008E5030008E5030008E5030008C0
:10008000E5030008E5030008E5030008E5030008B0
:10009000E5030008E5030008E5030008E5030008A0
:1000A000E5030008E5030008E5030008E503000890
:1000B000E5030008E5030008E5030008E503000880
:1000C000E5030008E5030008E5030008E503000870
:1000D000E5030008E5030008210F0008E503000818
:1000E000E5030008E5030008E5030008E503000850
:1000F000E5030008E5030008E5030008E503000840
:10010000E5030008E5030008E5030008E50300082F
:10011000E5030008E5030008E5030008E50300081F
:10012000E5030008E5030008E5030008E50300080F
:10013000E5030008E5030008E5030008E5030008FF
:10014000E5030008E5030008E5030008E5030008EF
:10015000E5030008E5030008E5030008E5030008DF
:10016000E5030008E5030008E5030008E5030008CF
:10017000E5030008E5030008E503000800000000AF
:10018000E5030008E503000800B583B000F0B8F906
:10019000384B394A1360394A1360394900E0214627
:1001A000384B99420BD20A684B6801F10C048868FD
:1001B0009842F4D91168196004330432F8E72E4BE1
:1001C0001A68314B9A4200D0FEE72C4B1A682F4B2D
:1001D0009A42F9D1274B2E4A13602E4A13602E4BB8
:1001E00005E00020106004329342FAD80B462B4AF7
:1001F000934204D2194651F8082B5B68F4E7244B6C
:100200001B6813B9234B1B6803B1FEE700F084F9A8
:10021000694601A800F020F9214C224BE41AA410F1
:100220000025AC4214DC204C204BE41AA41000251D
:10023000AC4213DC0099019800F034FF05461C4CD9
:100240001C4BE41AA410002C0EDC284600F0E0F849
:10025000144B53F8253098470135E2E7134B53F818
:10026000253098470135E3E7013C124B53F8243021
:100270009847E8E7BABADECA00000020E001002093
:10028000E8030008000400087856341232547698C7
:10029000E4010020140300200004000810040008FA
:1002A00010040008100400081004000810040008DE
:1002B000100400081004000808B5FFF765FF00BE31
:1002C000FEE71EF0040F0CBFEFF30880EFF3098088
:1002D0007146414A10472DE9F04182B004468846F4
:1002E000124B5E6B9F6B9D6A1B6B13F0020F03D06A
:1002F0000E4BDB6A002B0CDB0D4800F0B5F8CDF897
:1003000000803B4632462946204600F009F900BEEF
:10031000FEE74BF6AB6100F07DF90028ECD0034B13
:100320004FF00042DA6202B0BDE8F08100ED00E07B
:100330003025000800BEFEE71EF0040F0CBFEFF3EF
:100340000880EFF309807146244A10472DE9F041F7
:1003500082B004468846084B5E6B9F6B9D6A0748D7
:1003600000F082F8CDF800803B4632462946204610
:1003700000F0D6F800BEFEE700ED00E040250008E2
:100380001EF0040F0CBFEFF30880EFF309807146F5
:10039000134A10472DE9F04182B004468846084BC5
:1003A0005E6B9F6B9D6A074800F05EF8CDF8008099
:1003B0003B4632462946204600F0B2F800BEFEE732
:1003C00000ED00E04C25000800BEFEE700BEFEE7A1
:1003D00000BEFEE770470000D70200084D0300088A
:0803E0009503000800BEFEE7D2
:1003E8006C28000800000020E40100206C280008A8
:1003F8000000001000000010E40100201803002095
:080408000000001000000010CC
:10041000FEE7000008B503460C4A12685AB10B4AC1
:100420001068033323F003030344094A934206D8B8
:10043000064A136008BD054A06491160EFE700F05F
:1004400035FE0C2303604FF0FF30F3E7E801002096
:1004500000FC00201803002001230360014B0B6007
:10046000704700BF040000200FB400B583B004AB98
:1004700053F8042B01938021064800F0C9FE0028A0
:1004800003DD0146034800F037F803B05DF804EBE4
:1004900004B07047F00100202DE9F04385B0044618
:1004A0000F4643560BB10E461EE004252846214652
:1004B000ABBE0446384605B0BDE8F08314F9011B15
:1004C00004AA1A4402F8101C0133AB42F6D304AA62
:1004D0001344002203F8102C4FF00408E94640466C
:1004E0004946ABBE8046761B002EE3D03546102E23
:1004F00028BF10250023E8E708B5FFF7CDFF08BDAA
:1005000008B500F097F8024A024B9A6008BD00BF98
:100510000000000800ED00E008B500F0ABF808BDF1
:10052000F8B504460D4617461E462748FFF79CFFC0
:1005300021682648FFF798FF61682548FFF794FF78
:10054000A1682448FFF790FFE1682348FFF78CFF7C
:1005500021692248FFF788FF61692148FFF784FF7E
:10056000A1692048FFF780FFE1691F48FFF77CFF82
:100570001E48FFF779FF29461D48FFF775FF1D4C00
:10058000E16A1D48FFF770FF216B1C48FFF76CFF05
:10059000E16B1B48FFF768FF15F0800F0AD115F4D7
:1005A000004F0CD11748FFF75FFF06991648FFF779
:1005B0005BFFF8BD39461548FFF756FFEFE73146B8
:1005C0001348FFF751FFEDE7142400082424000826
:1005D000342400084424000854240008642400083B
:1005E000742400088424000894240008A42400082B
:1005F000B024000800ED00E0C0240008D02400086A
:10060000E02400081025000818250008F024000840
:100610000025000883691A888A4201D000207047AB
:100620000268033A012A03D802338361012070472C
:10063000002070470C4B1A6842F001021A6000213A
:1006400099601A6822F0847222F480321A60074A94
:100650005A601A6822F480221A60D960044B4FF065
:1006600000629A60704700BF0038024010300024DA
:1006700000ED00E0224B9B6803F00C03042B14D028
:10068000082B16D01BB11F4B1F4A1A6002E01D4BEE
:100690001D4A1A601A4B9B68C3F303131B4AD15CB3
:1006A000184A1368CB4013607047164B184A1A60FB
:1006B000F0E7134B5A685B6803F03F0312F4800FB6
:1006C00013D0134AB2FBF3F20D4B5B68C3F38813EC
:1006D00003FB02F30A4A5268C2F30142013252009C
:1006E000B3FBF2F3074A1360D4E7074AB2FBF3F215
:1006F000034B5B68C3F3881303FB02F3EAE700BF15
:10070000003802400C0000200024F4005C250008A2
:1007100000127A0008B5044B01225A61034B1B6892
:1007200003B1984708BD00BF003C014070020020A3
:10073000052804D8DFE800F00F0507090B0D00209D
:100740007047064870470648704706487047064895
:100750007047064870470648704700BF00040240D3
:1007600000080240000C024000100240001C024041
:100770000000024038B50C461546FFF7D9FF60B1BE
:100780000346026861000320884022EA00021A60E2
:100790001A6805FA01F11143196038BDF8B50D4624
:1007A00017461E46FFF7C4FFA8B143680122AA40BE
:1007B00023EA020343604368AF401F4347608368F6
:1007C0006D000322AA4023EA02038360836806FACD
:1007D00005F51D438560F8BD38B50C461546FFF795
:1007E000A7FF60B10346C26861000320884022EA87
:1007F0000002DA60DA6805FA01F11143D96038BD08
:1008000038B50C461546FFF793FF38B1012D06D0D9
:1008100041690122A24021EA0201416138BD4269D9
:10082000012101FA04F422434261F7E710B50C46B6
:10083000FFF77EFF20B10069E04000F0010010BD2D
:100840000020FCE738B50C461546FFF771FF70B184
:10085000072C0DD9426A083CA4000F21A14022EACE
:1008600001024262426A05FA04F41443446238BD4C
:10087000026AA4000F21A14022EA01020262026A78
:1008800005FA04F414430462F1E7EF288CBF00205A
:100890000120704710B50446FFF7F7FF38B104F0A8
:1008A0001F02640901239340014A42F8243010BD1D
:1008B00000E100E00A4A136843F001031360084BAB
:1008C0001B6813F0020FFAD0054A936823F0030364
:1008D0009360034B9B6813F00C0FFAD1704700BF75
:1008E00000380240032822D8DFE800F0020A121A7A
:1008F0000F48036B012202FA01F1194301637047AB
:100900000B48436B012202FA01F11943416370471E
:100910000748036C012202FA01F119430164704790
:100920000348436C012202FA01F119434164704704
:1009300000380240064B00221A609A605A601A681A
:1009400022F004021A601A6822F002021A6070474C
:1009500010E000E008B5024B1B6803B1984708BDE2
:1009600074020020024A136843F0010313607047C9
:1009700010E000E0024A136823F00103136070479F
:1009800010E000E0400000D1704708B50138094B85
:10099000586000229A601A6822F002021A60FFF77B
:1009A000E1FF044B1B6813F4803FFAD0FFF7E2FF2E
:1009B00008BD00BF10E000E008B54FF47A7303FBF8
:1009C00000F0FFF7DFFF08BD82B00023019303E0D2
:1009D00000BF019B0133019300EB4003019A934256
:1009E000F6D802B070470000642800D9642040F2B5
:1009F000E73303FB00F0044BA3FB0030C0F34F10C0
:100A0000024B5863986370471F85EB510004004008
:100A1000044B1B6813F0800FFAD080B2014B586072
:100A2000704700BF0044004010B5044602E00134A6
:100A3000FFF7EEFF94F900000028F8D110BD000088
:100A40000B4B1A78D2B20B4B1B78DBB29A420CD00C
:100A5000084A1378DBB20849CB5C03701378013382
:100A600003F07F031370012070470020704700BF20
:100A700000030020010300208002002008B50022AE
:100A800005211046FFF7BCFE002211460120FFF7AA
:100A9000B7FE002201210846FFF7B2FE0022022124
:100AA0000120FFF7ADFE002203210120FFF7A8FE81
:100AB0000020FFF799FF08BD08B558B101280CD0F8
:100AC000022824D003283CD0042854D06420FFF707
:100AD0008BFF08BDFFF7D2FFFBE700220521104680
:100AE000FFF78EFE002211460120FFF789FE01224A
:100AF00011461046FFF784FE002202210120FFF775
:100B00007FFE012203211046FFF77AFEDEE7012275
:100B100005210020FFF774FE012200211046FFF797
:100B20006FFE002201210846FFF76AFE0122022122
:100B30001046FFF765FE002203210120FFF760FE4B
:100B4000C4E7002205211046FFF75AFE01220021CA
:100B50001046FFF755FE002201210846FFF750FE20
:100B6000002202210120FFF74BFE01220321104643
:100B7000FFF746FEAAE7002205211046FFF740FED8
:100B8000002211460120FFF73BFE012211461046CC
:100B9000FFF736FE012202211046FFF731FE002248
:100BA00003210120FFF72CFE90E738B504460D46DF
:100BB0000022FFF7DFFD002229462046FFF70CFE4A
:100BC00038BD38B504460D460122FFF7D3FD022398
:100BD000002229462046FFF7E1FD00222946204653
:100BE000FFF7FAFD38BD000008B500210846FFF701
:100BF00079FE01210020FFF775FE02210020FFF79A
:100C000071FE01210220FFF76DFE11210220FFF786
:100C100069FE022211460020FFF7ACFD02220321EB
:100C20000020FFF7A7FD022206210020FFF7A2FD0A
:100C3000022207210020FFF79DFD0323002202214D
:100C40001046FFF7ABFD0323002219461046FFF7BD
:100C5000A5FD0223002206211046FFF79FFD022377
:100C6000002207211046FFF799FD072202210020EC
:100C7000FFF7E8FD072203210020FFF7E3FD012233
:100C800003210020FFF7A8FD022206210020FFF724
:100C9000D9FD022207210020FFF7D4FD0C4B8B2247
:100CA0009A6000221A615A6142F22C02DA60262010
:100CB000FFF7F0FD074B07229A6240F2E732DA6253
:100CC00046F668029A6111221A6281221A6008BDF2
:100CD000004400400004004010B582B004460023E8
:100CE000ADF8063008224C4900F03AFA50B9FFF747
:100CF000C5FE4A4B1A684A4B1A604A48FFF794FEF1
:100D000002B010BD0C224849204600F029FA38B93B
:100D100001220421FFF774FD4448FFF785FEEFE749
:100D20000D224349204600F01BFA40B9002204215D
:100D30001046FFF765FD3D48FFF776FEE0E70B2222
:100D40003C49204600F00CFA40B90122052110462A
:100D5000FFF756FD3848FFF767FED1E70C22374909
:100D6000204600F0FDF940B9002205210120FFF7DF
:100D700047FD3148FFF758FEC2E70DF10602304942
:100D8000204600F0B9F9012807D1244B1A68244BFA
:100D90001A602C48FFF748FEB2E72B49204600F0C6
:100DA000F1F950B10120FFF787FE1C4B1A681C4B6C
:100DB0001A602648FFF738FEA2E72549204600F0D2
:100DC000E1F918B10220FFF777FEEEE7214920464E
:100DD00000F0D8F918B10320FFF76EFEE5E71E49D1
:100DE000204600F0CFF918B10420FFF765FEDCE7DC
:100DF0001A49204600F0C6F948B1FFF73FFE074BFD
:100E00001A68074B1A600748FFF70EFE78E7144888
:100E1000FFF70AFE74E700BF6C25000804030020FA
:100E20007C0200207825000884250008942500080D
:100E3000A0250008B0250008BC250008C82500082A
:100E4000D8250008E8250008F42500085C260008DD
:100E5000082600081C2600082C2600083C2600084E
:100E60004C2600082DE9F04104460D4616461F4663
:100E70000022FFF7C5FC0220FFF7A6FD012229464C
:100E80002046FFF7BDFC0C20FFF79EFD00222946FF
:100E90002046FFF7B5FC47F2305439463046FFF79D
:100EA000C5FC38B9651E24B10120FFF78DFD2C4625
:100EB000F3E72C46C4B1002547F2305404E001208A
:100EC000FFF782FD0135444639463046FFF7AEFC58
:100ED00018B104F1FF38002CF1D10448A0FB053013
:100EE000C0F34F10BDE8F0810020FBE709CB3D8D3A
:100EF00000B597B00123002211461046FFF7B2FF5C
:100F0000024600900346054902A800F0D5F802A861
:100F1000FFF78AFD17B05DF804FB00BF68260008E4
:100F20000F4B1B6813F02F0F18D00D4A526852B2A6
:100F300013F0200F12D00B4B1B78013303F07F030B
:100F400009490978C9B2994208D010B40548017816
:100F5000C9B2064C6254037010BC7047704700BFA2
:100F60000044004000030020010300208002002014
:100F700070B592B0FFF79EFCFFF7DCFCFFF734FE84
:100F800000210120FFF71DFE01210846FFF719FE91
:100F900002210120FFF715FE03210120FFF711FEBA
:100FA00000210846FFF70DFE01210020FFF7FDFD9F
:100FB00004210020FFF705FE05210020FFF701FEB8
:100FC00005210120FFF7FDFD0D210220FFF7F9FDAE
:100FD000002204211046FFF713FC002205211046D1
:100FE000FFF70EFC002205210120FFF709FC00227B
:100FF0000D210220FFF704FCFFF740FD2548FFF715
:1010000013FD002634461FE09DF907300A2B0AD055
:101010000D2B08D03E2C17D8621C12A90C4404F8E2
:10102000403CD4B210E0002212AB234403F8402C21
:1010300054B102A8FFF750FE002405E0FFF71EFDA3
:1010400012E00120FFF7B8FC0DF10700FFF7F8FCF4
:101050000028D9D1104A1368013313600F4A12686F
:101060009B1AB3F5167FE9D80B4B1D68AB1BB3F584
:10107000967FE6D3FFF73CFF094B1A78B2FA82F26B
:1010800052091A7082F001020D210220FFF7B8FB0D
:101090002E46D6E798260008040300207C02002094
:1010A0007802002008B5FFF763FF0000014B1868C5
:1010B000704700BF100000200EB400B59CB01DABFF
:1010C000029006906FF00041094807910491094988
:1010D00053F8042B05910068019302A900F000F970
:1010E000029B00221A701CB05DF804EB03B070473D
:1010F000100000200802FFFF0EB430B59CB01FACFA
:101100004FF4017254F8045BADF81420029006907D
:1011100000F01EF80B4B039007900B930A480194C4
:1011200000230F9314934FF6FF73ADF816302A4641
:10113000234602A9006800F023FA1CB0BDE8304045
:1011400003B070474D1100081000002000207047C8
:10115000034613F8012B002AFBD1181A01387047F7
:1011600010B56AB10139841810F8013B11F8012F4C
:10117000934203D1A04201D0002BF5D1981A10BDA3
:101180001046FCE7F0B503787BB10446237820468F
:10119000661C7BB14A1E631E12F8015F4DB113F845
:1011A000017FAF423446F7D0F0E70B78002B18BF31
:1011B0000020F0BD1846FCE730B5141E05469BB074
:1011C000184605DA8B232B604FF0FF301BB030BD83
:1011D0004FF40273ADF80C3014BF04F1FF33234613
:1011E000029305934FF6FF7300910491ADF80E3012
:1011F00002461E9B6946284600F072F8431CBCBF9D
:101200008B232B60002CE1D0009B00221A70DDE7BD
:1012100007B5009313460A46014603480068FFF7E6
:10122000CBFF03B05DF804FB100000202DE9F04770
:101230008E689E4282460C469046994637D88A89E7
:1012400012F4906F31D0256809696F1A656902231D
:1012500005EB450595FBF3F509F101033B449D4280
:1012600038BF1D46530530D5294601F02BF80646F8
:1012700050B90C23CAF80030A38943F04003A3817E
:101280004FF0FF30BDE8F0873A46216900F0A8FF33
:10129000A38923F4906343F08003A38126616561F1
:1012A0003E44ED1B2660A5604E464E4500D94E4695
:1012B00032464146206800F09EFFA3689B1BA36056
:1012C00023681E4426600020DCE72A4601F054F81B
:1012D00006460028E2D12169504600F0A5FFC8E784
:1012E0002DE9F04F9DB0804603938B891D060C4677
:1012F00016460FD50B696BB9402100F0E3FF206063
:10130000206128B90C23C8F800304FF0FF30C7E047
:10131000402363610023099320238DF82930302373
:101320008DF82A304FF0010B37463D4615F8013B4A
:101330000BB1252B3ED1B7EB060A0BD053463246F4
:1013400021464046FFF772FF013000F0A480099B60
:10135000534409933B78002B00F09D8000234FF00D
:10136000FF32CDE90523049307938DF853301A9388
:101370002F46052217F8011B4F4800F0E1FE049BA1
:10138000D0B9D90644BF20228DF853201A0744BF94
:101390002B228DF853202A782A2A15D0079A2F4617
:1013A00000200A25394611F8013B303B092B4DD965
:1013B000B8B10FE02F46B8E73F4A801A0BFA00F0A9
:1013C000184304903D46D3E7039A111D1268039118
:1013D000002A01DB079204E0524243F00203079225
:1013E00004933B782E2B0CD17B782A2B33D1039B93
:1013F0001A1D1B680392002BB8BF4FF0FF33023752
:1014000005932E4D39780322284600F099FE38B115
:101410004023401B03FA00F0049B0343013704936D
:10142000397827488DF8281006227E1C00F088FEA7
:10143000002838D0234B13BB039B073323F007034B
:1014400008330393099B4B4409936DE705FB023274
:1014500001200F46A6E700230137059319460A2508
:10146000384610F8012B303A092A03D9002BC8D08E
:101470000591C6E705FB012101230746F0E703AB11
:1014800000932246104B04A94046AFF30080B0F110
:10149000FF3F8146D6D1A3895B063FF536AF099859
:1014A0001DB0BDE8F08F03AB00932246064B04A9A4
:1014B000404600F02BFAEAE7A4260008AA26000816
:1014C000AE260008000000002D12000838B54B1CA5
:1014D000144603D14FF0FF35284638BD938923F0D9
:1014E00020039381636B5268CDB28BB1A36B93429F
:1014F00008DD23685A1E226003F8015C636801332B
:101500006360E9E7214600F0B7FD0028F1D0E1E78C
:101510002169236851B1994208D213F8011CA942EC
:1015200004D1013B013223606260D5E7C4E90F3288
:1015300004F1440363630323A363234603F8465F74
:1015400023600123DCE710B50C46496B69B104F157
:101550004403994201D000F067FE236C63600020D1
:10156000606313B1E36B236010BD23692360002324
:101570006360A38943F02003A3814FF0FF30F3E7BA
:101580002DE9F04FADF5257D0DF10C0801930023F9
:10159000469347939E4BA293DFF87C929D4BCDF8E8
:1015A000208106460C469246A3930A279AF80030FB
:1015B000002B00F02A81554600F09CFD15F801BB78
:1015C0005844437813F008031CD06368002B12DDE5
:1015D00000F090FD23681A7810444278120701D475
:1015E000AA46E3E7479A0132479262680133013A1B
:1015F00062602360E9E7A39B2146304698470028B4
:10160000E6D0EDE7BBF1250F40F082804593439390
:101610009AF801302A2B03D1102343930AF10205D3
:10162000AA4615F8011BA1F13002092A22D903228A
:10163000794800F085FD38B1A0EB090301209840FE
:10164000439B18434390AA469AF80030672B0AF14F
:1016500001052BD8652B80F09F80472B10D8452B98
:1016600080F09A80002B6CD0252B51D00323499316
:10167000449727E0459B07FB0313303B4593CFE797
:101680005B2B6AD00CD8582BF0D1439A42F40072ED
:101690004392102244926E2B8CBF0423032310E04C
:1016A000632B65D0642BE1D14497F4E7702B4BD0CA
:1016B00026D86E2B62D04CD8692BD7D10023449307
:1016C000032349936368002B68DD439B590607D4C5
:1016D00000F010FD23681A7810444278120764D491
:1016E000499B022B73DC01AB224643A9304600F034
:1016F0001FFA012800F0898002287FF471AF1DE0F5
:10170000752BD1D0782BC0D0732BAFD10223D8E763
:101710006368002B0CDD23681A785A4575D10133B4
:1017200062682360479B013A01336260479357E741
:10173000A39B2146304698470028ECD046980028C5
:1017400059D14FF0FF305CE0439A42F020024392BF
:101750009BE7082344930423B3E72946404600F05F
:101760003FFB439B43F04003439305460123A8E717
:10177000439B43F0400343930023A2E74398C306EF
:101780003FF52EAF019B479A191D01911B68C007B9
:101790004CBF1A801A6023E7052392E7A39B2146DA
:1017A00030469847002890D0C8E7479A01324792C0
:1017B0006268013A002A626002DD0133236087E734
:1017C000A39B214630469847002881D0B6E7042BDA
:1017D00006DC01AB224643A9304600F00DFA88E74B
:1017E0000E4B002B3FF4FCAE01AB224643A9304622
:1017F000AFF300807DE7A38913F0400F18BF4FF0CF
:10180000FF300DF5257DBDE8F08F4698F9E700BF64
:10181000CD14000847150008AA26000800000000A3
:101820002DE9F04791461F468A680B69DDF8208054
:101830009342B8BF1346C9F8003091F843200646DA
:101840000C4612B10133C9F800302368990642BF33
:10185000D9F800300233C9F80030256815F00605C4
:1018600007D104F1190AE368D9F800209B1AAB42AA
:1018700028DC94F843302268003318BF0123920615
:101880002DD404F1430239463046C047013020D000
:101890002368E568D9F8002003F00603042B08BF8D
:1018A000AD1AA36822690CBF25EAE57500259342AD
:1018B000C4BF9B1AED184FF000091A344D451AD1D8
:1018C000002008E00123524639463046C047013027
:1018D00003D14FF0FF30BDE8F0870135C3E7E118D1
:1018E0005A1C302081F84300224494F8451082F8B5
:1018F00043100233C5E70123224639463046C0472C
:101900000130E6D009F10109D8E700002DE9F043E4
:1019100001F1430C0C46097E85B06E291746064638
:1019200098460C9A00F0B38022D8632936D00AD8A2
:10193000002900F0B980582900F0838004F14205A5
:1019400084F8421032E0642901D06929F6D1206878
:101950001368050603F104012AD51B681160002BEA
:1019600003DA2D225B4284F843206F480A2239E0D3
:10197000732900F09D8008D86F2920D07029DDD10F
:10198000236843F02003236003E0752917D07829EA
:10199000D4D1782384F84530644855E01368191D84
:1019A0001B68116004F1420584F8423001238CE089
:1019B0001B68116010F0400F18BF1BB2CFE713680F
:1019C0002568181D1060280601D51B6802E068060E
:1019D000FBD51B8854486F2914BF0A220822002116
:1019E00084F843106568A560002DC0F295802168D9
:1019F00021F004012160002B3DD1002D40F08E80AC
:101A00006546082A0BD12368DB0708D5236962687D
:101A10009A42DEBF302305F8013C05F1FF35ACEBFF
:101A200005032361CDF800803B4603AA21463046DA
:101A3000FFF7F6FE01304DD14FF0FF3005B0BDE8A5
:101A4000F083394884F84510136821681D1D1B6810
:101A500015600A060BD5CA0744BF41F0200121607A
:101A60001BB9226822F0200222601022B7E74D063F
:101A700048BF9BB2EFE76546B3FBF2F102FB1133BF
:101A8000C35C05F8013D0B460029F5D1B9E71368A1
:101A900025686169181D106028061B6801D519604A
:101AA00002E06A06FBD51980002323616546B9E789
:101AB0001368191D11601D6862680021284600F036
:101AC0003FFB08B1401B606063682361002384F81A
:101AD0004330A7E723692A4639463046C0470130DC
:101AE000AAD023689B0713D4E068039B9842B8BF31
:101AF0001846A3E701234A4639463046C04701301D
:101B00009AD00135E368039A9B1AAB42F2DCEBE70B
:101B1000002504F11909F5E7002BACD1037884F80E
:101B2000423004F142056CE7B5260008C6260008DD
:101B30002DE9F04115468A6880460C4632B98A691B
:101B4000002A14BF4FF0FF3201228A602268D106BA
:101B50005FBF1A68111D196017680026A369DBB101
:101B6000012B07D12B6862691B78D35CA3B9002EC7
:101B700032D106E0022B07D0002E2DD1A369012B14
:101B80002AD10120BDE8F08100F0B4FA2B681B785F
:101B9000184443781B07EFD42368DA065EBF2B682E
:101BA0001B783B702A686B6802F101022A60A26808
:101BB00003F1FF3302F1FF326B6006F1010658BFFB
:101BC0000137A26042B1002BC8DCD4F8803129462D
:101BD000404698470028C1D0236813F0100305D170
:101BE000E2680132E260A26902B13B7023691E44DF
:101BF00026610020C6E700002DE9F04F9A46744B9D
:101C00000C468346164693E8070087B003ABA768E7
:101C100083E807006F4BA1696F4A032908BF1A4682
:101C20007B1EB3F5AE7F84BF40F25D13A3602368D3
:101C3000009243F4506388BF6FF4AE7504F11C0941
:101C400023608CBF7F1900274B464FF0000801939B
:101C5000316803AB022253F82800097800F070FACB
:101C6000019B30B3B8F1010F5AD162682AB92268DA
:101C7000082142F4007261602260226822F4A062AE
:101C80002260A268511EA1609AB13268511C316075
:101C900012781A705D1C7368013B002B736007DCBF
:101CA000D4F88031314658469847002840F0868065
:101CB0002B4608F10108B8F1030FC8D162680AB9D0
:101CC0000A2262606268454960690193891A00F0DE
:101CD00087F8019B4FF000081D46A3682268002B7F
:101CE0003AD03168606991F800C010F80C00002803
:101CF00032D0BCF1300F21D110051FD508F10108F9
:101D000017B10133013FA3607368013B002B73607F
:101D10001BDD336801333360A368013BA360DCE75C
:101D2000B8F1020FADD1226802F4C061B1F5007FB5
:101D3000BFD11021616042F48072A1E722F41062E9
:101D400022600B782B700135DEE7D4F88031314604
:101D5000584698470028DFD02368D9050CD54D4553
:101D600008D915F8011CD4F87C31324658469847FA
:101D70006F1E3D464D4529D0226812F0100213D146
:101D80002A706368009E49465846B047DAF800302A
:101D900021681A1DCAF8002011F0200F1B6810D00E
:101DA0001860E3680133E360A5EB0905A8442569E1
:101DB00045442561002007B0BDE8F08F4FF00008D2
:101DC000CAE7CA074CBF18801860EAE70120F2E7AB
:101DD000D82600083D1F000855200008F4260008FA
:101DE00070B50B785E2B13BF4A1C8A1C4B78002100
:101DF00008BF0121441E00F1FF0504F8011FAC4299
:101E0000FBD113B9013A104670BD81F00104C454EE
:101E1000511C11F8015C2D2D01F1FF360A4606D048
:101E20005D2DF0D00DB93246EDE72B46EFE70E7889
:101E30005D2EFAD0B342F8DC01339E42C454FBDC81
:101E40000231E6E72DE9F0478046894692461E4674
:101E50000F463D46089815F8014B00F047F920441D
:101E6000437813F0080332D12D2C32D17C78BD1C7D
:101E70000122002E5DD0102E09D1302C07D12B78F5
:101E800003F0DF03582B4FD16C7810260235002A5F
:101E900014BF4FF000416FF000410027B1FBF6FC8A
:101EA000384606FB1C1EA4F13003092B17D81C462C
:101EB000A64223DD7B1C07D084451CD301D1A64557
:101EC00019DB00FB0640012715F8014BEBE72F4615
:101ED000BFE72B2C04BFBD1C7C781A46C9E7A4F1D0
:101EE0004103192B01D8373CE2E7A4F16103192B18
:101EF00004D8573CDCE74FF0FF37E5E77B1C08D1FF
:101F00002223C8F800300846BAF1000F07D1BDE817
:101F1000F08702B14042BAF1000FF8D00FB105F1DD
:101F2000FF39CAF80090F2E73024002EAFD108261E
:101F3000ADE7302CA3D00A26A9E7000037B5064C40
:101F4000064D2468246A002C08BF2C460094FFF735
:101F500079FF03B030BD00BF1000002074000020E6
:101F60002DE9F0478046894692461E460F463D467B
:101F7000089815F8014B00F0B9F82044437813F0A5
:101F8000080330D12D2C30D17C78BD1C0121002ECE
:101F90005CD0102E09D1302C07D12B7803F0DF0351
:101FA000582B4ED16C78102602354FF0FF320023AB
:101FB000B2FBF6F206FB02FC6FEA0C0C1846A4F129
:101FC0003007092F17D83C46A64223DD002B1EDB25
:101FD00082421CD301D1A44519DB00FB064001233A
:101FE00015F8014BEBE72F46C1E72B2C04BFBD1CB6
:101FF0007C781946CBE7A4F14107192F01D8373C6B
:10200000E2E7A4F16107192F04D8573CDCE74FF051
:10201000FF33E5E7002B09DA2223C8F800304FF040
:10202000FF30BAF1000F07D1BDE8F08701B140429F
:10203000BAF1000FF8D00BB105F1FF39CAF80090E2
:10204000F2E73024002EB0D10826AEE7302CA4D021
:102050000A26AAE737B5064C064D2468246A002CE8
:1020600008BF2C460094FFF77BFF03B030BD00BFD4
:1020700010000020740000202DE9F0410C46496B4F
:1020800004F1440399421DD14FF4806100F01AF924
:1020900018B94FF0FF30BDE8F0814FF48063A363BF
:1020A00094F84630606380F8FF3394F8453080F848
:1020B000FE3394F8443080F8FD3300F2FD302060A8
:1020C0000020E8E7A66B77003A4600F055F9054690
:1020D0000028DED000EB060801463246404600F0FC
:1020E0007FF8C4F80080C4E90D57E9E7D0F8EC00A8
:1020F00070470000044B054A1B681B6A002B08BF91
:102100001346D3F8EC007047100000207400002044
:1021100082B001B901A942B14BB113780B601278BA
:10212000101C18BF012002B070471046FBE76FF08B
:102130000100F8E7000000000000000000000000BF
:1021400001F0FF01102A2BDB10F0070F08D010F868
:10215000013B013A8B422DD010F0070F42B3F6D16C
:10216000F0B441EA012141EA014122F007047FF085
:1021700000070023F0E80256083C85EA010586EADC
:10218000010685FA47F5A3FA87F586FA47F6A5FA18
:1021900087F68EB9EED1F0BC01F0FF0102F0070224
:1021A00032B110F8013B013A83EA010313B1F8D1CF
:1021B0000020704701387047002D06BF35460338B0
:1021C000073815F0010F07D1013015F4807F02BFE9
:1021D000013015F4C03F0130F0BC0138704700BF3A
:1021E00010B5431E0A44914200D110BD11F8014BB5
:1021F00003F8014FF7E7884210B501EB020307D857
:10220000421E99420AD011F8014B02F8014FF8E73B
:102210008342F5D98118D21AD34200D110BD13F8E8
:10222000014D01F8014DF7E738B50546002945D0C5
:1022300051F8043C0C1F002BB8BFE41800F0DFF885
:102240001F4A1368104633B9636014602846BDE81E
:10225000384000F0D5B8A3420CD9216862189342E7
:1022600004BF1A685B68636004BF52182260046090
:10227000ECE713465A680AB1A242FAD9196858180D
:10228000A0420BD120680144581882421960DDD168
:10229000106852685A6001441960D7E702D90C23CC
:1022A0002B60D3E7206821188A4204BF1168526866
:1022B000626004BF091821605C60C7E738BD00BFD9
:1022C0000803002070B5CD1C25F0030508350C2D42
:1022D00038BF0C25002D064601DBA94203D90C238B
:1022E0003360002070BD00F08AF8214A146821464E
:1022F00091B9204C23681BB9304600F063F8206088
:102300002946304600F05EF8431C24D10C2333608C
:10231000304600F075F8E4E70B685B1B18D40B2B14
:102320000FD90B60CD50CC18304600F069F804F19D
:102330000B00231D20F00700C31AD3D05A42E250ED
:10234000D0E78C424B6816BF636013600C46EBE726
:102350000C464968CCE7C41C24F00304A04205D015
:10236000211A304600F02EF80130CFD02560DBE78F
:10237000080300200C030020F8B5074614460E465B
:1023800021B91146BDE8F840FFF79CBF22B9FFF71D
:102390004BFF25462846F8BD00F033F8A0420FD287
:1023A00021463846FFF78EFF05460028F2D0314619
:1023B0002246FFF715FF31463846FFF735FFE9E7BC
:1023C0003546E7E738B5064C002305460846236046
:1023D000FEF720F8431C02D1236803B12B6038BDFF
:1023E0001003002049B1FF2A85BF8A2303600A70C9
:1023F0004FF0FF3098BF0120704708467047704784
:10240000704751F8043C181F002BBCBF0B58C01874
:1024100070470000537461636B206672616D653AAA
:102420000A000000205230203D2020253038580A74
:1024300000000000205231203D2020253038580A6D
:1024400000000000205232203D2020253038580A5C
:1024500000000000205233203D2020253038580A4B
:102460000000000020523132203D20253038580A2B
:1024700000000000204C52203D2020253038580A12
:1024800000000000205043203D2020253038580A0D
:102490000000000020505352203D20253038580ABB
:1024A000000000004653522F4641523A0A000000F5
:1024B0002043465352203D2020253038580A000042
:1024C0002048465352203D2020253038580A00002D
:1024D0002044465352203D2020253038580A000021
:1024E0002041465352203D2020253038580A000014
:1024F000204D4D464152203D20253038580A0000DD
:102500002042464152203D2020253038580A000004
:102510004D6973630A000000204C522F4558435FF9
:1025200052455455524E3D20253038580A0000007F
:102530005B486172644661756C745D0A000000005E
:102540005B4275734661756C745D0A005B5573611F
:1025500067654661756C745D0A000000000000004C
:10256000000000000102030406070809434D44204F
:1025700053544F500000000041434B2053544F50E0
:102580000A000000434D44204C49474854204F4E18
:102590000000000041434B204C494748540A0000CA
:1025A000434D44204C49474854204F4646000000C4
:1025B000434D4420484F524E204F4E0041434B2044
:1025C000484F524E0A000000434D4420484F524E9F
:1025D000204F464600000000434D442053504545DF
:1025E000442025687500000041434B205350454569
:1025F000440A0000434D44204D4F564520464F525B
:102600005741524400000000434D44204D4F564571
:10261000204241434B57415244000000434D442067
:102620004D4F5645204C454654000000434D442034
:102630004D4F56452052494748540000434D4420D1
:102640004D4F56452053544F500000004E41434BD0
:1026500020554E4B4E4F574E0A00000041434B2031
:102660004D4F56450A00000054454C204C454654F9
:102670002025687520524947485420256875204414
:1026800049535420256875204D4F444520415554E9
:102690004F5F5343414E0A0053544D20524541442D
:1026A000590A0000232D302B2000686C4C00656611
:1026B0006745464700303132333435363738394193
:1026C00042434445460030313233343536373839A9
:1026D0006162636465660000F6260008F92600085A
:1026E000FC260008412D46612D66383930313233E1
:1026F000343536375D002B2D00303000785800001F
:1027000000000000000000000000000000000000C9
:1027100000000000000000000000000000000000B9
:1027200000000000000000000000000000000000A9
:102730000000000000000000000000000000000099
:102740000000000000000000000000000000000089
:102750000000000000000000000000000000000079
:102760004300504F534958002E00002020202020C5
:102770002020202028282828282020202020202031
:102780002020202020202020202020881010101021
:102790001010101010101010101010040404040475
:1027A00004040404041010101010101041414141A1
:1027B0004141010101010101010101010101010189
:1027C000010101010101101010101010424242429B
:1027D0004242020202020202020202020202020259
:1027E000020202020202101010102000000000007D
:1027F00000000000000000000000000000000000D9
:1028000000000000000000000000000000000000C8
:1028100000000000000000000000000000000000B8
:1028200000000000000000000000000000000000A8
:102830000000000000000000000000000000000098
:102840000000000000000000000000000000000088
:102850000000000000000000000000000000000078
:0B28600000000000000000000000006D
:10286C0078563412EC010020000000000024F40023
:10287C00140000200000000020270008402700085A
:10288C00002700080000000000000000000000000D
:10289C00000000000000000000000000000000002C
:1028AC00000000000000000000000000000000001C
:1028BC00000000000000000000000000000000000C
:1028CC0000000000000000000000000000000000FC
:1028DC0000000000430000000000000000000000A9
:1028EC0000000000000000000000000000000000DC
:1028FC000000000043000000000000000000000089
:10290C0000000000000000000000000000000000BB
:10291C000000000043000000000000000000000068
:10292C00000000000000000000000000000000009B
:10293C000000000043000000000000000000000048
:10294C00000000000000000000000000000000007B
:10295C000000000043000000000000000000000028
:10296C00000000000000000000000000000000005B
:10297C000000000043000000000000000000000008
:10298C00000000000000000000000000000000003B
:10299C0000000000430000000000000000000000E8
:1029AC00000000000000000000000000000000001B
:1029BC0000000000E52300081121000800000000C1
:1029CC006A27000868270008A9260008A92600081D
:1029DC00A9260008A9260008A9260008A92600088F
:1029EC00A9260008A9260008A9260008FFFFFFFF5A
:1029FC00FFFFFFFFFFFFFFFFFFFF00000100415340
:102A0C0043494900000000000000000000000000E5
:102A1C000000000000000000000000000000415316
:102A2C0043494900000000000000000000000000C5
:102A3C00000000000000000000000000000000008A
:042A4C0032547698F2
:040000050800018965
:00000001FF
